:020000041000EA
:1000000000B5324B212058609868022188439860DF
:10001000D860186158612E4B002199600221596106
:100020000121F02299502B49196001219960352056
:1000300000F044F80222904214D00621196600F024
:1000400034F8196E01211966002018661A6600F04E
:100050002CF8196E196E196E052000F02FF8012189
:100060000842F9D1002199601B49196000215960AB
:100070001A491B48016001219960EB211966A021F2
:10008000196600F012F800219960164914480160C1
:100090000121996001BC002800D000471248134993
:1000A000086003C880F30888084703B5996A0420EC
:1000B0000142FBD001200142F8D103BD02B5186610
:1000C0001866FFF7F2FF186E186E02BD00000240BE
:1000D000000000180000070000035F00212200005C
:1000E000F4000018222000A00001001008ED00E03C
:1000F00000000000000000000000000074B24E7A12
:1001000000200420F7010010C3010010C5010010F9
:10011000C1010010C1010010C1010010C101001097
:10012000C1010010C1010010C1010010C701001081
:10013000C1010010C1010010C9010010CB01001065
:10014000CD010010CD010010CD010010CD01001037
:10015000CD010010CD010010CD010010CD01001027
:10016000CD010010CD010010CD010010CD01001017
:10017000CD010010CD010010CD010010CD01001007
:10018000CD010010CD010010CD010010CD010010F7
:10019000CD010010CD010010CD010010CD010010E7
:1001A000CD010010CD010010CD010010CD010010D7
:1001B000CD010010CD010010CD010010CD010010C7
:1001C00000BE00BE00BE00BE00BE00BE00F051F882
:1001D000103800BEF2EB8871E00200100C03001032
:1001E0003402001090A31AE700202449086006C8D2
:1001F00081F30888104722480068002835D10DA4F3
:100200000ECC002902D000F012F8F9E71D491E4A71
:10021000002000E001C19142FCD11C4988471C49E3
:1002200088471C49884700BEFDE701C901C29A42C0
:10023000FBD370470C030010C0000020C08E0020CC
:100240000C910010C08E00209C9D0020E89F0010A3
:100250000000042000000420E89F0010001004208B
:10026000001004200000000070470B4800F018F850
:100270000047EFF30580C0B27047000008ED00E0D2
:10028000000000D0A09D0020E8230120A93200201A
:100290003917002099330020575600000000000055
:1002A00001B40248844601BC604700BFB14F002042
:1002B00006005250ABB36053D49700200600525052
:1002C000861C0302E4970020060052505422A29D8F
:1002D000F097002005005250DE65F468E89F00109A
:1002E000D4020010C8020010BC020010FC970020CD
:1002F000B0020010089800201498002020980020D8
:0C0300005C980020689800209C98002069
:10030C00F8B5C0460448054B10B5834203D0044BE6
:10031C00002B00D0984710BD9C9D00209C9D002078
:10032C000000000006480749091A8B10C90FC918AC
:10033C0010B5491003D0044B002B00D0984710BDCA
:10034C009C9D00209C9D00200000000010B5074CD7
:10035C002378002B09D1FFF7D5FF054B002B02D0DA
:10036C00044800E000BF0123237010BDA89E0020AC
:10037C0000000000C08E0020054B10B5002B03D0F0
:10038C000449054800E000BFFFF7CCFF10BDC04694
:10039C0000000000AC9E0020C08E002005490A68B9
:1003AC0093009B18044A5B001268303A9B180B6050
:1003BC007047C04634A8002024A800200022014B1E
:1003CC001A60704734A80020024B1A68024B1A605E
:1003DC007047C04634A8002058A200200122014BCF
:1003EC001A60704738A8002010B50A2005F00CFFE1
:1003FC000A2005F009FF10BD70B50A2005F004FFB6
:10040C00094C0A4E25002D35FF35626813782A2BCE
:10041C0003D03000217805F0FFFF0C34AC42F4D14E
:10042C00034805F0F9FF70BD0C9B00204C91002097
:10043C005891002070B500250C4805F037FF0C4E84
:10044C00FA20800005F0FAFF0400431CF8D02000CD
:10045C0005F0DAFE0D2C05D06B1C7455262BEFDC49
:10046C001D00EDE70023735570BDC046749100204C
:10047C0080A8002010B5034804F0BAFE0021030048
:10048C000020984755420000D02380221B065203BF
:10049C005A61802212035A61002382B00193019B9E
:1004AC00002B05DC019B01330193019B002BF9DD33
:1004BC0002B07047D02380221B0652035A6180225F
:1004CC0012039A61002382B00193019B002B05DC7F
:1004DC00019B01330193019B002BF9DD02B07047A6
:1004EC00F0B5D64646464F460A20C0B505F08CFE00
:1004FC00154E00253368002B1ADD144B002498464A
:10050C000F239A46124B134F994609E04346195D47
:10051C0038006D1805F080FF336801349C4207DA0F
:10052C0053462342F2D12100484605F075FFEDE712
:10053C000A2005F069FE2900074805F06DFF1CBC78
:10054C0090469946A246F0BD10A4002024B9002084
:10055C0098910020A0910020A8910020D023802207
:10056C001B0612035A61802252039A61002382B047
:10057C000193019B002B05DC019B01330193019B33
:10058C00002BF9DD02B07047D02380221B065202EB
:10059C0010B59A61802212035A61802252039A612B
:1005AC00002386B00393039B002B05DC039B0133D4
:1005BC000393039B002BF9DD4C4805F02DFFD02352
:1005CC0001221B065A6101325A6102329A610432CD
:1005DC009A6108329A6110325A6120329A61403223
:1005EC005A6100230293029B002B05DC029B013312
:1005FC000293029B002BF9DD00230193019B002B3E
:10060C0005DC019B01330193019B002BF9DDD02309
:10061C0002201B0659685A68C905120A0240C90F04
:10062C0011435A680230120A02400A4359680430D6
:10063C00090A01400A4359680830090A014011436C
:10064C005A681030120A024011435A685C68120A48
:10065C00E40BE301FF24203002400A431C40144306
:10066C005C2C3DD0224805F0D7FE2100214805F036
:10067C00D3FED02301221B065A6101325A61023289
:10068C005A6104325A6108325A6110325A6120326E
:10069C005A6140325A6100230593059B002B05DCFF
:1006AC00059B01330593059B002BF9DDD02380229C
:1006BC001B0652035A61802212039A610023049391
:1006CC00049B002B05DC049B01330493049B002B3F
:1006DC00F9DDD02380221B0652029A6106B010BDB0
:1006EC005C21054805F098FEC3E7C046B491002094
:1006FC00FC91002014920020D491002010B504002D
:10070C0001F052FB0123D022A34012069362200079
:10071C000022002101F030FB2100024805F07CFE94
:10072C0010BDC0464492002010B5040001F03CFB03
:10073C000123D022A3401206536221009361024888
:10074C0005F06AFE10BDC0465C92002030B51F4912
:10075C0083B00B68581C132B02D90A230B200B6097
:10076C001B4A9B00D258002A17D0D0228024120694
:10077C006403546180242403946100220092009A43
:10078C00002A05DC009A01320092009A002AF9DD59
:10079C00104A0860D05803B030BDD0248025240600
:1007AC002D03656180256D03A5610192019A002AD4
:1007BC00EEDC019A01320192019A002AE8DC019ADE
:1007CC0001320192019A002AF3DDE1E764A80020CE
:1007DC00BC9A0020389C0020F0B50023DE4657461A
:1007EC004E464546AF4AE0B51360AF4AAF4C924611
:1007FC00012251460A60AE49AE4D0B608946AE49A6
:10080C0023600A60AD4A8B461360AD4A80211360A9
:10081C00AC4A49021360AC4A2B601360D02212061A
:10082C009161802109035161802197B04903916145
:10083C000993099B002B05DC099B01330993099B48
:10084C00002BF9DDD02301221B065A6101325A61BB
:10085C0002325A6104325A6108325A6110325A61BA
:10086C0020325A6140325A6100230893089B002BB6
:10087C0005DC089B01330893089B002BF9DD8026CF
:10088C008027D020F602B4460021904B7F0098467A
:10089C001B680006624682610C910C9A934205DD3E
:1008AC000C9A01320C920C9A9342F9DC46610D9130
:1008BC000D9A934205DD0D9A01320D920D9A9342D9
:1008CC00F9DC86610A910A9A934205DD0A9A013293
:1008DC000A920A9A9A42F9DB46610B910B9A93425F
:1008EC0005DD0B9A01320B920B9A9A42F9DB013F10
:1008FC00002FCFD1D02380221B0652025A61002335
:10090C00D02601273606002B00D092E04A4612680A
:10091C00032A00D167E16E4B9A4200D127608023F5
:10092C00DB0273614346196800230693069B9942C8
:10093C0005DD069B01330693069B9942F9DC0023E7
:10094C000F930F9B002B05DC0F9B01330F930F9B19
:10095C00002BF9DD73685F4873687368736873689C
:10096C007368736873682B68834200DD39E1013367
:10097C002B607068400C074200D02CE15046006898
:10098C00002800D14AE151460F605946096801918F
:10099C00012900D18DE1494601320A6000225946F5
:1009AC0010920A60109A002A05DC109A01321092FB
:1009BC00109A002AF9DD726872687268726872683F
:1009CC00726872687268434A934200DD59E142468C
:1009DC00013311682B608022D202B261002207928F
:1009EC00079A914205DD079A01320792079A8A42CB
:1009FC00F9DB00221492149A002A05DC149A0132B5
:100A0C001492149A002AF9DD72687268726872681E
:100A1C0072687268726872682E4A93426ADC7268F5
:100A2C000133520C2B60174269D02368002B00D184
:100A3C006CE7294805F03AFC284A294B90460122DC
:100A4C0041460A60204A1B68264E12683360002A11
:100A5C0000DC90E100229246234A00249346234A6C
:100A6C00234F91460BE01E4B3800595905F0D4FC2E
:100A7C00154B01341B68A34200DC08E13368184AAB
:100A8C00A50052599A4206D0434652462100584678
:100A9C001A6005F0C1FC2307E5D12100484605F09A
:100AAC00BBFCE0E720A80020649A002058A8002096
:100ABC0078A30020ACA80020B89A00204CA80020F5
:100ACC0064A8002018A400201CA400205C9A00201C
:100ADC00B80B00004FC30000CC920020589A0020A5
:100AEC0024A90020609A0020D4920020DC920020DF
:100AFC00A091002072682760520C174295D10022F9
:100B0C001592159A002A05DC159A01321592159A40
:100B1C00002AF9DDD026360671687268974F944624
:100B2C0072680292726803927268049272687068BA
:100B3C0005927668BB4200DCFBE001232360904FFA
:100B4C00904A3F680197BF00BF587A1C00D1D7E686
:100B5C008D4A12680192002A00D0D1E64A461268EA
:100B6C00974200D0CCE68027884AFF001268BA4230
:100B7C002DDA864A000A1268F60B571C0192834A3A
:100B8C00F601176040273840BF373E40C905064381
:100B9C00C90F0E432021059A0498120A0A401643E5
:100BAC001022000A104006430398083A010A11402B
:100BBC0002980E430421020A60460A401643020AB8
:100BCC0002200199024072483243890042500122AE
:100BDC006D490A6094E64846013202605A46176035
:100BEC00F9E62760C5E60221776171610231716116
:100BFC0004317161083171611031716120317161A1
:100C0C00403171610E930E9B002B00DD87E60E9B2D
:100C1C0001330E930E9B002BF9DD80E61290129A95
:100C2C00002A05DC129A01321292129A002AF9DD7E
:100C3C0072687268726872687268726872687268D8
:100C4C004E4A934221DC01332B60022277617261A0
:100C5C000232726104327261083272611032726156
:100C6C00203272614032726100221392139A002A70
:100C7C0000DDB0E6139A01321392139A002AF9DDC3
:100C8C00A9E6424627601168A5E62760DDE74346E2
:100C9C001B68002B6FD13F493F4805F0BDFB0A2074
:100CAC0005F0B2FA17B03CBC90469946A246AB464A
:100CBC00F0BDFFF74BFD019B03423ED1B361022314
:100CCC0003423ED1B361042303423ED1B3610823F6
:100CDC0003423ED1B361102303423ED1B3612023C2
:100CEC0003423ED1B361402303423ED1B361802322
:100CFC0003423ED1B36100231193119B002B05DC01
:100D0C00119B01331193119B002BF9DD234B1B68B5
:100D1C00132B07DC21495A1C0A604946204A0968F2
:100D2C009B00995000234A461360174A13602B68A6
:100D3C0034E601332B60236801E77361022303421D
:100D4C00C0D0736104230342C0D0736108230342F3
:100D5C00C0D0736110230342C0D0736120230342BF
:100D6C00C0D0736140230342C0D07361802303421F
:100D7C00C0D07361BFE70B498EE7C0464FC300007C
:100D8C0064A80020689A002018A400201CA400204D
:100D9C0024A90020C8920020E492002020A8002062
:100DAC00D4A80020C4920020F0B557464E464546C4
:100DBC00DE46E0B5314B83B09A460193002398464A
:100DCC002F4B304D9946304B4E469B462F4F50364D
:100DDC004346FF221B1253404A46D3624246FF232E
:100DEC0093434A460A2053634C4605F00DFA02CC55
:100DFC00280005F011FBB442F9D10A2005F004FAE1
:100E0C0043461B072BD0FFF7E7FC3B68002BFAD0BF
:100E1C005A465346126804C39A4601239C468023C3
:100E2C00E0445B019845D3D1194805F03FFA194BC2
:100E3C0044469846019B00260F27994608E04B46EE
:100E4C0002CB28000136994605F0E6FAA6420BD0F3
:100E5C003742F4D13100404605F0DEFAEFE7414667
:100E6C000C4805F0D9FACEE70A2005F0CDF903B00D
:100E7C003CBC90469946A246AB46F0BD24E100200E
:100E8C00389C0020A0910020609A0020589A0020E5
:100E9C00F4920020DC920020D0238022F0B5DE46B4
:100EAC0057464E4645461B065202E0B59A618022D3
:100EBC0012035A61802252039A610023D5B0189311
:100ECC00189B002B05DC189B01331893189B002BE7
:100EDC00F9DDD02301221B065A6101325A6102321C
:100EEC009A6104329A6108329A6110325A61203246
:100EFC009A6140325A6100231793179B002B05DC33
:100F0C00179B01331793179B002BF9DD00231693C6
:100F1C00169B002B05DC169B01331693169B002B9E
:100F2C00F9DDD02302201B065A685968D205090A3C
:100F3C000140D20F0A4359680230090A014011439B
:100F4C005A680430120A024011435A680830120AD7
:100F5C0002400A4359681030090A01400A43596893
:100F6C005B68090A2030DB0B01401143DA01FF23D7
:100F7C00134019435C2901D100F0BFFC8E4805F0E9
:100F8C004BFAD02301221B065A6101325A610232FC
:100F9C005A6104325A6108325A6110325A61203255
:100FAC005A6140325A6100231993199B002B05DCBE
:100FBC00199B01331993199B002BF9DD8024802593
:100FCC00D020E402260000217C4B6D001B6800063B
:100FDC0086611C911C9A934205DD1C9A01321C926D
:100FEC001C9A9342F9DC44611D911D9A934205DDD4
:100FFC001D9A01321D921D9A9342F9DC84611A915B
:10100C001A9A9A4205DA1A9A01321A921A9A9A4242
:10101C00F9DB44611B911B9A934205DD1B9A01324B
:10102C001B921B9A9A42F9DB013D002DD0D18026F0
:10103C00D0218022F6020027B446002401200906A4
:10104C0052024A6162468A610594059A934205DD13
:10105C00059A01320592059A9A42F9DB4A680025F5
:10106C00520C104201D1002701254E610694069ABC
:10107C00934205DD069A01320692069A9A42F9DBF2
:10108C004A68520C104201D1002701258E61079449
:10109C00079A934205DD079A01320792079A9A4202
:1010AC00F9DB4A68520C104201D1012701254E612F
:1010BC000894089A934205DD089A01320892089A1E
:1010CC009A42F9DB4A68520C104201D100F01BFC29
:1010DC00002DB7D0002F01D000F015FC8024D020BB
:1010EC00E402022526000021000686612291229A44
:1010FC00934205DD229A01322292229A9342F9DC24
:10110C0044612391239A934205DD239A0132239261
:10111C00239A9342F9DC84612091209A934205DD55
:10112C00209A01322092209A9342F9DC4461219159
:10113C00219A934205DD219A01322192219A934200
:10114C00F9DC012D01D00125CFE78024D020E40269
:10115C00260000210135000686612691269A9342CD
:10116C0005DD269A01322692269A9342F9DC4461D7
:10117C002791279A934205DD279A01322792279AC5
:10118C009342F9DC84612491249A934205DD249ADC
:10119C0001322492249A9342F9DC44612591259AD8
:1011AC00934205DD259A01322592259A9342F9DC6A
:1011BC00012D05D00125CFE7149200205C9A002068
:1011CC00D022022112065561916102315161043124
:1011DC00916108315161103191612031516140317F
:1011EC00516100222892289A002A05DC289A0132A3
:1011FC002892289A002AF9DD80240122D021802609
:10120C00E4022700002094460906B6028F612B9059
:10121C002B9A934205DD2B9A01322B922B9A9342F7
:10122C00F9DC4C612C902C9A934205DD2C9A0132FE
:10123C002C922C9A9342F9DC8C612990299A934236
:10124C0005DD299A01322992299A9342F9DC4C61E5
:10125C002A902A9A934205DD2A9A01322A922A9AD6
:10126C009342F9DC4D688C612F902F9A934205DDE7
:10127C002F9A01322F922F9A9342F9DC4C613090C5
:10128C00309A934205DD309A01323092309A934273
:10129C00F9DC8C612D902D9A934205DD2D9A01324B
:1012AC002D922D9A9342F9DC4C612E902E9A9A42F3
:1012BC0005DA2E9A01322E922E9A9342F9DC4A6864
:1012CC00324203D062466D0CAA439FD0D02201213A
:1012DC001206516101315161023151610431516188
:1012EC0008315161103151612031516140315161EE
:1012FC0000223192319A002A05DC319A0132319266
:10130C00319A002AF9DD8024D020E402142526002D
:10131C000021000686613491349A934205DD349A9B
:10132C0001323492349A9342F9DC44613591359A06
:10133C009A4205DA359A01323592359A9342F9DCA4
:10134C0084613291329A9A4205DA329A013232929F
:10135C00329A9342F9DC44613391339A934205DD1E
:10136C00339A01323392339A9342F9DC013D002DCA
:10137C00D0D18024D020E4022600002102350006C2
:10138C0086613891389A934205DD389A0132389249
:10139C00389A9342F9DC44613991399A934205DDCC
:1013AC00399A01323992399A9342F9DC8461369137
:1013BC00369A934205DD369A01323692369A93422A
:1013CC00F9DC44613791379A9A4205DA379A01323F
:1013DC003792379A9342F9DC012D01D00125CFE7E2
:1013EC00D0220221120655619161023191610431C2
:1013FC00516108319161103151612031516140319D
:10140C00516100223A923A9A002A05DC3A9A01324A
:10141C003A923A9A002AF9DD8024D020E40202257F
:10142C0026000021000686613D913D9A934205DD20
:10143C003D9A01323D923D9A9342F9DC44613E91D2
:10144C003E9A9A4205DA3E9A01323E923E9A934275
:10145C00F9DC84613B913B9A934205DD3B9A013266
:10146C003B923B9A9342F9DC44613C913C9A9A4200
:10147C0005DA3C9A01323C923C9A9342F9DC012DFC
:10148C0001D00125CFE7D0228021120649035161FA
:10149C0080210903916100223F923F9A002A05DCCA
:1014AC003F9A01323F923F9A002AF9DD8020CA4AC6
:1014BC00C00215000392D0220400403512064021D0
:1014CC0049428C46AC446146019102218946023165
:1014DC00884604318C460021012656614E465661E1
:1014EC004646566166465661102656611036566160
:1014FC0020365661403656614291429E002E05DCE4
:10150C00429E01364296429E002EF9DD906140913A
:10151C00409EB34205DD409E01364096409EB3424C
:10152C00F9DC50614191419EB34205DD419E01368B
:10153C004196419EB342F9DC032794614591459E47
:10154C009E4205DA459E01364596459EB342F9DC2E
:10155C0050614691469EB34205DD469E0136469645
:10156C00469EB342F9DC90614391439EB34205DD44
:10157C00439E01364396439EB342F9DC506144913D
:10158C00449E9E4205DA449E01364496449EB342E4
:10159C00F9DC013F002FD0D190610B970B9EB34229
:1015AC0005DD0B9E01360B960B9E9E42F9DB5061BE
:1015BC000A910A9EB34205DD0A9E01360A960A9EDE
:1015CC009E42F9DB50610991099EB34205DD099EEB
:1015DC0001360996099E9E42F9DB4791479E002EE3
:1015EC0005DC479E01364796479E002EF9DD56686E
:1015FC00B2465668B34656685F4602964E463F0A58
:10160C003740BB464746029E360A3E405F463E4345
:10161C00B3465646370A012637405E463E43B2462D
:10162C00664657683F0A374056463E435768B346AE
:10163C003F0ABA461027564637405E463E43576827
:10164C00B3463F0ABA462027564637405E463E43CD
:10165C005768B3463F0ABA464027564637405E465F
:10166C0037435668F60BF6013E43019F3E7090617E
:10167C001191119EB34205DD119E01361196119EFA
:10168C009E42F9DB50611091109EB34205DD109E15
:10169C0001361096109E9E42F9DB90610F910F9EC1
:1016AC00B34205DD0F9E01360F960F9E9E42F9DB6D
:1016BC0050610E910E9EB34205DD0E9E01360E96C4
:1016CC000E9E9E42F9DB80263603566180267603F9
:1016DC0096614891489E002E05DC489E013648963E
:1016EC00489E002EF9DD90610D910D9EB34205DDF3
:1016FC000D9E01360D960D9E9E42F9DB50610C91AC
:10170C000C9E9E4205DA0C9E01360C960C9E9E4257
:10171C00F9DB90614B914B9E9E4205DA4B9E013654
:10172C004B964B9EB342F9DC50614C914C9EB342AC
:10173C0005DD4C9E01364C964C9EB342F9DC906113
:10174C004991499EB34205DD499E01364996499E11
:10175C00B342F9DC50614A914A9E9E4205DA4A9E98
:10176C0001364A964A9EB342F9DC90611591159E5A
:10177C00B34205DD159E01361596159E9E42F9DB8A
:10178C0050611491149EB34205DD149E01361496DB
:10179C00149E9E42F9DB90611391139E9E4205DAD2
:1017AC00139E01361396139E9E42F9DB0126566159
:1017BC004E4696614646966166465661102696617F
:1017CC001036566120365661403656614D914D9E0D
:1017DC00002E09DC02E0C04624B900204D9E0136E3
:1017EC004D964D9E002EF9DD50611291129E9E4237
:1017FC0005DA129E01361296129E9E42F9DB0227E2
:10180C0094615091509EB34205DD509E0136509626
:10181C00509EB342F9DC50615191519EB34205DDAB
:10182C00519E01365196519EB342F9DC90614E9116
:10183C004E9EB34205DD4E9E01364E964E9EB342F1
:10184C00F9DC50614F914F9E9E4205DA4F9E013656
:10185C004F964F9EB342F9DC012F01D00127CFE701
:10186C008026760356618026360396615291529EED
:10187C00002E05DC529E01365296529E002EF9DD4A
:10188C00019E01360196B54200D025E6304940351F
:10189C00A94200D013E6D02380221B0652035A61C2
:1018AC00802212039A6100235393539B002B05DC77
:1018BC00539B01335393539B002BF9DDD023802290
:1018CC001B0652029A61C022C021224B12011A60DF
:1018DC00039B09018C461A000021624418780133DD
:1018EC0009189342FAD11C4804F096FD55B03CBC43
:1018FC0090469946A246AB46F0BD5C21174804F0D1
:10190C008BFDFFF73EFBD02280211206C9029161AC
:10191C0000221E921E9A934205DD1E9A01321E92DF
:10192C001E9A9342F9DCD02280211206C902516121
:10193C0000221F921F9A934201DCFFF7CFFB1F9AE4
:10194C0001321F921F9A9342F9DCFFF7C7FBC04686
:10195C0064C5002010A4002004930020D491002022
:10196C0070B50025034C2368002BFCD02560FFF7D5
:10197C0093FAF8E738A80020F0B5DE4645465746FE
:10198C004E46E0B589B004F053FDFA20C00001F0DA
:10199C0013F95F4804F040FD1320FEF7C5FE142038
:1019AC00FEF7C2FED024802324061B036361802330
:1019BC005B0363610A2004F027FC564D01272800C5
:1019CC0004F02AFD544804F027FD280004F024FDFF
:1019DC000A2004F019FC514804F01EFD20239946FE
:1019EC004F4B504D9846A94440CD300000F0DCF9E7
:1019FC003B00B340002130000022A36200F0BCF990
:101A0C003100404604F008FDA945EDD1202399464C
:101A1C00454BD02598460127444C2D06A14440CC7B
:101A2C00300000F0C1F93B00B34031006B6240461E
:101A3C00AB6104F0F1FC4C45F1D11020FEF774FEC3
:101A4C001220FEF771FE1120FEF758FE80235B0278
:101A5C00AB61374807AB06AA05A900F0BFF8002810
:101A6C0003D13349334801F0B9FD079A069905981B
:101A7C0000F078F8304807F0DBFA304B21259B4614
:101A8C002F4B304C9A46304B304F9946304B314EA1
:101A9C009846FA20800004F0D1FC431C32D022007E
:101AAC00002303E001330C32192BF2D01178884259
:101ABC00F8D15A4610605A00D3189B00E3189B6863
:101ACC0098475146244804F0A7FC43461B683968E4
:101ADC005A1E934132680191501E824152422A4053
:101AEC00203202924A46009112685B422B4020330E
:101AFC0011001A4804F090FCFA20800004F09EFCBF
:101B0C00431CCCD104F008FC154804F085FCC0E75C
:101B1C001493002034930020509300206C930020E9
:101B2C0044920020B49400205C920020D4940020B5
:101B3C00B01E0400809300202117002024A8002050
:101B4C0080A800200C9B002034A8002058A2002064
:101B5C0070A200206CA20020749200208C920020B5
:101B6C00C0920020F0B583B005000E00140000F008
:101B7C00ABF9002801D003B0F0BD154F01223B009A
:101B8C0001210097053001F047FD33002A00009435
:101B9C000121104801F02EFF21002800714303F0B1
:101BAC007DFB04000C4B002200930221042001F069
:101BBC0033FD2300002201210094052001F02CFDAF
:101BCC003B00022200210097062001F025FDD2E700
:101BDC00006CDC0200800240001BB700F0B5DE4652
:101BEC0057464E464546E0B5070083B004209B4659
:101BFC000091019201F0F8FEFA21890003F04EFBEE
:101C0C0032238246FF33994686005644B6014C4B2C
:101C1C004C4AF318072493420BD901235B429C4690
:101C2C005346E144F61A4B46002BF0D100205AE003
:101C3C00012421003000614303F030FB874259D06E
:101C4C00631E9846012CE8D01D0065433000290026
:101C5C0003F024FB874251D0A31E9846022CE7D0F8
:101C6C002D1B2900300003F019FB874249D0E31EDD
:101C7C009846032C4BD02D1B2900300003F00EFB93
:101C8C00874246D0231F9846042C48D02D1B290090
:101C9C00300003F003FB874243D0631F9846052CAA
:101CAC0045D02D1B2900300003F0F8FA874240D0B4
:101CBC00062C42D03000E91F03F0F0FA06248742CC
:101CCC00B7D10029B5D101230724984673019B1B7A
:101CDC009B009E19009BF6001E60019B42461C60F7
:101CEC005B4601201A6003B03CBC90469946A24664
:101CFC00AB46F0BD0029A3D1A046E7E70029ABD144
:101D0C00E4E70029E2D0E31E9846032CB3D1022469
:101D1C008FE70029DAD0231F9846042CB6D1032470
:101D2C0087E70029D2D0631F9846052CB9D104242B
:101D3C007FE70029CAD0062CBCD1052479E7C04620
:101D4C00508EF4FF50F80C00094A83009446402250
:101D5C00634410B51C68C0006240C024144080224B
:101D6C00520113431C60034B9C466044416010BD00
:101D7C0004C00140004001400A4B80009C460423F3
:101D8C006044002901D00C230821002A00D10B004B
:101D9C00026853400C221A4080235B0118430260F6
:101DAC007047C04604C001400123D0228340120674
:101DBC0093629361094A83009446402263441968F4
:101DCC00C0004A40C02111408022520113431960C7
:101DDC00034B9C46052360444360704704C001409C
:101DEC0000400140F8B5EFF3108772B60E4E336821
:101DFC00002BFCD0BFF35F8FCB08C4180725A4467B
:101E0C00C45C01230D40AB4018002040234208D194
:101E1C00624623431370BFF35F8F306087F31088E3
:101E2C00F8BD100001F0DAFB2C0100D0F8B5CE465D
:101E3C0047468C4680B5EFF3108872B6214D2C685E
:101E4C00002CFCD0BFF35F8F9A422CD8D40807210A
:101E5C00055D0619012411408C402C421FD007212E
:101E6C008946063909E0D408055D06194C460F0071
:101E7C001440A7403C002F4211D001329342F2D2C1
:101E8C0001204042BFF35F8F00220E4B1A6088F393
:101E9C00108800280FDB0CBC90469946F8BD2C43EB
:101EAC0010003470EEE7BFF35F8F00232B6088F3D4
:101EBC001088012040426346002BECD0089801F0BA
:101ECC008DFBC0462C0100D0024B18688007C00F58
:101EDC007047C04600C006400021044B044ABFF3C3
:101EEC005F8F02C39342FAD17047C046000100D005
:101EFC00800100D0044A1078431CDBB2172B00D9A8
:101F0C00102313707047C046889C002000B5054B09
:101F1C0083B00100009318221F230348FFF786FFAC
:101F2C0003B000BDF494002074A30020012383406F
:101F3C00002904D0034A1360034A13607047034A14
:101F4C001360FBE780E200E000E100E080E100E0EC
:101F5C0001228240034B1B681340581E8341D8B2A8
:101F6C007047C04600E100E001238340014A136042
:101F7C007047C04600E200E0084B10309B688000C0
:101F8C00C358002B07D0064A00209B1A2F229A42D6
:101F9C004041C0B270470020FCE7C04600ED00E0B5
:101FAC008C9C0020024B10309B688000C0587047FE
:101FBC0000ED00E070B50D00EFF3108672B60F4A1D
:101FCC001368002BFCD0BFF35F8F0D4B10309B6858
:101FDC0084001B590B4A934203D09D4201D001F05F
:101FEC0015FB074B9B681D51BFF35F8FBFF35F8FD2
:101FFC000022024B1A6086F3108870BD240100D0B9
:10200C0000ED00E0CD010010F0B557464E464546B8
:10201C00DE46E0B5894683B005001700EFF3108A61
:10202C0072B65E4A1368002BFCD0BFF35F8F0020A2
:10203C005B4B18569B4600286DDB5A464400594EA4
:10204C002418A400331998469B7910351370564BFD
:10205C00AA009B6801929B589C469B1B2F2B29D84E
:10206C00012261469143CB79BB4208D86BE0530007
:10207C009B189B00F318DD79BD4252D9190006223A
:10208C008A56002AF3DABD260B1D9B4636024346C0
:10209C005C46043B1B1B1B05444C5B0D23438B8094
:1020AC00887141468A714A46414B8E800B60CF71D4
:1020BC008A601BE03F4B9C4542D142463E4B02346A
:1020CC0013803E4B3619043B9E1B3605374B760D61
:1020DC001E433B4B56809380FF23D771937143462D
:1020EC004A469A60012342461A43944661462E4B57
:1020FC00019A9B689950BFF35F8FBFF35F8F0022EB
:10210C00264B1A608AF3108803B03CBC9046994663
:10211C00A246AB46F0BD01F079FA5B46002018569A
:10212C008BE70B1D9B468B8804345B051B155B44AE
:10213C0036199E1BE0233605760D1B021E43A6E7BF
:10214C0001F064FAB9E745460B001E489B1B5B4146
:10215C005843000D184B2B80A31C9C46B444654679
:10216C00164B0434043B5B1B1B05104D5B0DAC463E
:10217C002B43454636196B800B1F9E1B6346A8717B
:10218C0048463605760D1E43094BAE80EF71A860AC
:10219C000B60434613439C46A8E7C046240100D07D
:1021AC00CEA800208C9C002000ED00E000E0FFFF9A
:1021BC0001488047CD01001000A1FFFFBC9C00200E
:1021CC0000BDFFFFAAAA0000F0B5DE4657464E46FA
:1021DC004546E0B50C0083B0EFF3108A72B65A4A4C
:1021EC001368002BFCD0BFF35F8F10229146814403
:1021FC004A46564B96009B689D59554B98469D42B6
:10220C0005D0A54216D0534FEB1B2F2B14D94F4B97
:10221C009B689D51BFF35F8FBFF35F8F00224A4BCA
:10222C001A608AF3108803B03CBC90469946A246CB
:10223C00AB46F0BD1D00EAE7012383409B465A469E
:10224C00454B1B681A4000925A46444B1A60BFF328
:10225C005F8F06F04DFF0190002803D0814501D01F
:10226C0001F0D4F901232A009A4393689C4208D1C7
:10227C0060E04B005B189B00FB189968A14211D0E1
:10228C001A00062151560029F3DA009B002B05D0C9
:10229C005A46334B1A60304B1A60B8E75A462F4BEC
:1022AC001A60B4E706215956002922DB4A0050185F
:1022BC0080003C188046A0689860E079D8710620B0
:1022CC0020569871A0797F2824D8A488F81A640520
:1022DC00241544440019E0240005400D2402204339
:1022EC00988052181F4B9200BF181A781970BA7147
:1022FC00CBE70199002910D1FF3191711A499180D6
:10230C0018490A789A71194ADB1B5B415A43120D22
:10231C000A70BAE7BD200002E2E7154A1549D21A45
:10232C00083A5002400D01439980134952080A4360
:10233C00DA80AAE70621515613000029B6DA019A71
:10234C00002AEAD14546DBE7240100D000ED00E08D
:10235C00CD0100108C9C002000E100E080E100E049
:10236C0080E200E0CEA8002000BDFFFFAAAA00007A
:10237C00C69C002000F0FFFF00F8FFFFF8B5012518
:10238C000400054306F0B4FE0300EFF3108672B6AA
:10239C0021490A68002AFCD0BFF35F8F1F4A200036
:1023AC001F49801A40414143090D1E489B00876814
:1023BC0049B2FF58AF421CD00623D3568B421CD0D7
:1023CC001223D3568B4222D01E23D3568B4220D0BD
:1023DC002A23D35603208B4210D0134B1A78197032
:1023EC00A271BFF35F8F00220B4B1A6086F310882B
:1023FC00F8BD82680D48D050EFE7002043001B1851
:10240C009B00D218FF239371094B9380E5E70120C1
:10241C00F4E70220F2E7C046240100D08C9C002097
:10242C00AAAA000000ED00E0CEA80020CD0100100B
:10243C0000BDFFFF054B064A1360064A136053604C
:10244C009360D36013615361936170478080808087
:10245C0000E400E004E400E0D02300B51B061B6898
:10246C000100074883B0C018064B002200930523D7
:10247C00FFF7DCFC002801DB1F23181A03B000BD9A
:10248C00C8A8002010950020024B9C46614489008E
:10249C00016070474000003483680B4810B58446D7
:1024AC0061446244090112019A18591854684B6826
:1024BC0001209C4201D802D00020C0B210BD12688D
:1024CC000B689A42F9D8F7E7FFFFFF0F0A4B196820
:1024DC00EFF3108072B60A68002AFCD0BFF35F8F4E
:1024EC001B68BFF35F8F00221A6080F3108840BF17
:1024FC00002000217047C04660A80020F8B5574660
:10250C004E464546DE46E0B5434D81468A466A68EE
:10251C00EFF3108872B61368002BFCD0BFF35F8FFB
:10252C002E68B47B002C3ED0670033683F19033F04
:10253C00DA195378B373002B00D1F3730023937023
:10254C0053701370A968354A8C464946A21812017B
:10255C0062441160514651603149D36091603268D8
:10256C00D219937053701370737B9B46002B35D02C
:10257C0022001900B068736898473268002820D090
:10258C005B4658465B005B44D719033BB870D118C7
:10259C00D35C002B00D07B705B460C7073735C4576
:1025AC001DD0002626E06B68BFF35F8F1C6088F39C
:1025BC001088012040423CBC90469946A246AB464E
:1025CC00F8BD5B465B005B44033BD3189C70D11990
:1025DC00D25D002A00D05A705B460B7074734A4669
:1025EC005346287D00F060FC061EDAD021002868D6
:1025FC0000F0A0FEEB686A681B19013B1B78BFF367
:10260C005F8F0021116088F310880020002ED2D13A
:10261C0018022043CFE7C046D49C0020FFFFFF0FD9
:10262C008D220020F8B5574645464E46DE46E0B5AD
:10263C0099460CAB19780DAB1B78050090469A4661
:10264C000768002912D1BE7B002E45D074003B6870
:10265C00A419033C1B195A783100BA73002A00D113
:10266C00FA7300229A705A701A7003E00E004C0034
:10267C006418033C2C4B00229C46AB6861449C467E
:10268C004346090161440B604B464B600A9B8B60CF
:10269C000B9BCB603B681B199A705A701A707B7B32
:1026AC009B46002B2CD032005946B8687B68984763
:1026BC003A68002817D05B4658465B005B441419F7
:1026CC00033BA070D118D35C002B00D063705B4629
:1026DC000E707B73B34514D030003CBC90469946C9
:1026EC00A246AB46F8BD5B465B005B44033BD3188C
:1026FC009E701119125D002A00D05A705B460B7047
:10270C007E7342464B46287D00F0CEFB041E06D05D
:10271C005346002B03D13100286800F00BFE0E9BB2
:10272C00002BD9D01C70D7E7FFFFFF0FF0B5DE46AA
:10273C004E46574645460023E0B58DB00A936B4B89
:10274C008200D3580B90994600239B464B46079327
:10275C0000F020FB079C06000F006268EFF3108569
:10276C0072B61368002BFCD022000794BFF35F8F66
:10277C002468637B9946002B67D092685C4B90462B
:10278C004B441B01984443461A685B6810001900BF
:10279C00801BB94100295FDD0B9800F085FB0023FD
:1027AC000026984600279A46079C6368BFF35F8F04
:1027BC005A461A6085F310885346002B08D100281E
:1027CC00C6D10DB03CBC90469946A246AB46F0BD76
:1027DC000A9B414618024B461843D0470890099172
:1027EC006268EFF3108572B61368002BFCD0079467
:1027FC00BFF35F8F0899099A002A48DB114303D075
:10280C00079B1B69002B5DD1079B1B68DA7B002A99
:10281C0007D051008A1819688C4649466244033A1D
:10282C0051704A46DA734B46079A013BD168CA5C31
:10283C000132CA545B46079A13615368BFF35F8F2A
:10284C005A461A6085F3108882E7002300269846C2
:10285C0000279A460020A7E7002901D100289BD128
:10286C000021200000F0C8FC43461E685F689B688E
:10287C00079A9A464346DB689846D3684B44013B1B
:10288C001B780A931B020343136100208CE7236916
:10289C00002BB9D033003C005B1A94411A00230082
:1028AC00A74219D89F421BD059460491012103918C
:1028BC004946029141460191514607980091FFF714
:1028CC00B1FEB7E700F066FA089A099B06000F0004
:1028DC0092197B419942E5D901225242D317E3E781
:1028EC009642E1D901225242D317DDE73CA80020E1
:1028FC00FFFFFF0F10B5124C6368002B04D00A21A8
:10290C001048FFF7C1FD10BD23000F4A10212068AD
:10291C0000F090FB032000F031FA032000F036FBAE
:10292C0003200A4900F07AFAFFF7E4FA084B9C46B8
:10293C00032360442375074B80006060DC60DEE796
:10294C00D49C002060A8002059220020ED240020F7
:10295C00400000343CA8002000487047D49C002064
:10296C00F0B557464546DE464E46E0B585B0019378
:10297C0010AB1B7800270393002380469A460092E5
:10298C0043465A68EFF3108972B61368002BFCD0DB
:10299C00BFF35F8F43461D68AC7B002C4FD06600A5
:1029AC002B683619033E9B195A78AA73002A00D15A
:1029BC00EA7342469F705F701F709268524B944648
:1029CC000099019AE3181B01634419605A600E9A2E
:1029DC009A600F9ADA602B689B199F705F701F705A
:1029EC006B7B9B46002B46D022001900A8686B68B5
:1029FC0098472A68002831D05B4658465B005B44F8
:102A0C009619033BB070D118D35C002B00D07370B7
:102A1C005B460C706B735C452ED04346DB681B1910
:102A2C00013B187843465B68BFF35F8F1F6089F3E7
:102A3C0010885346002B2ED10002204307E05B6820
:102A4C00BFF35F8F1C6089F310880120404205B0F2
:102A5C003CBC90469946A246AB46F0BD5B465B003B
:102A6C005B44033BD3189C709119925D002A00D0F3
:102A7C005A705B460B706C734346187D009A019B31
:102A8C0000F012FA82460028C7D04346210018688D
:102A9C0000F050FCC1E7039B002B32D00E9B0020B2
:102AAC000F999847030004000D000B4329D000290F
:102ABC000DDA0098019902000B00121BAB419942F0
:102ACC0015D81AD000920193039B9A4658E700F050
:102ADC0061F902000B00A4185D4120002900009050
:102AEC000191AB4203D8EFD100998A42ECD9012372
:102AFC005B42DC1700930194E6E700999142E1D91F
:102B0C00F5E70020A3E7C046FFFFFF0FF0B5040078
:102B1C000D0006267642F717C64636196F4100B5EA
:102B2C008F4213D810D000F035F932003B00121A46
:102B3C008B41002B14DC002B37D02900200000F037
:102B4C005DF904BC9046F0BD8642ECD90026002706
:102B5C0000F020F932003B00121A8B41002BEADD09
:102B6C0030003900FFF7CAFC0028E6DB002398464A
:102B7C00BC460F4A0F4F7B6A9C4504D8B96A8E42FB
:102B8C00DBD99C45D9D11168EFF3108072B60B6874
:102B9C00002BFCD0BFF35F8F1368BFF35F8F4146F0
:102BAC00196080F3108820BFE5E7002AC5D0D7E76D
:102BBC0060A800200040054070B5060000F0EAF85F
:102BCC00FA2204000D00002330000021920003F0D3
:102BDC00A1F9001969418D4205D802D0FFF796FF83
:102BEC0070BD8442FAD901204042C117F6E7C046B5
:102BFC00F8B5CE46474680B506000C00FFF77EFCC4
:102C0C0000280CDC2D4B0020596A8C4203D89B6A9F
:102C1C000130B34245D30CBC90469946F8BD20BF59
:102C2C00274D6A68EFF3108772B61368002BFCD03F
:102C3C00BFF35F8F2B68C1B29C465B7B8B4235D058
:102C4C00FF2303405A00914662461268994490460D
:102C5C004A464244033A9278002A1DD0EA68000A98
:102C6C0090464344013B1B78C0B2834221D06B6831
:102C7C00BFF35F8F00221A6087F310880F4A002081
:102C8C00536A9C42C7D8926A0130B242C3D2E41A4A
:102C9C00601E8441E0B2BEE72B699842E7D12A61FD
:102CAC00E5E7641A601E8441E0B2B4E7FF230340F9
:102CBC00D4E7604600F03EFBD9E7C0460040054033
:102CCC00D49C0020F0B5D6464F464646C0B5EFF32F
:102CDC0005833F22134018001038EFF3108C72B6A6
:102CEC00204D2A68002AFCD0BFF35F8F012211000F
:102CFC0081401D4C884661631C4917000E788A463A
:102D0C003100C1400F400A4215D019498200646A53
:102D1C0051588C4219D3174BD25843469E435346B5
:102D2C001E70BFF35F8F00232B608CF31088002A7A
:102D3C0006D0904704E0BFF35F8F2F608CF31088B0
:102D4C001CBC90469946A246F0BD0B4A9B0090468F
:102D5C0043441A681A60BFF35F8F00232B608CF317
:102D6C001088EDE7280100D000400540D1A80020D4
:102D7C0070A800205CA20020D03F054010B50100D7
:102D8C00024A0348FFF72EF810BDC0462C950020D0
:102D9C00CDA80020034B596A0A00986A596A8A42E6
:102DAC00FAD170470040054070B504000D00124A7E
:102DBC00536A1900966A536A8B42FAD13000190093
:102DCC0024184D41AB4211D80ED02B000A494A6A47
:102DDC009A42FCD307D1084A02E0516A994202D1C7
:102DEC00916AA142F9D370BDA642EED90123012408
:102DFC006442E5175B42E9E700400540064A536A26
:102E0C009942FCD807D1044B02E05A6A914202D194
:102E1C009A6A8242F9D370470040054070B50400AD
:102E2C000D00EFF3108672B61A4A1368002BFCD013
:102E3C00BFF35F8F002D1BD02000FFF7B3F81649AE
:102E4C0081420AD02000FFF7B5F801212000FFF7DE
:102E5C006DF80123A340114A1360114BA400E550F7
:102E6C00BFF35F8F00220B4B1A6086F3108870BD86
:102E7C000B4BA200D5500122A2400A4920000B782E
:102E8C0093430B700449FFF79FF900212000FFF7D3
:102E9C004DF8E5E7280100D0852A00203860054070
:102EAC005CA20020D1A80020F0B54F46D64646467D
:102EBC00C0B50700304C616A0D00A66A616AA94270
:102ECC00FAD18B4208D805D001201CBC90469946FB
:102EDC00A246F0BDB242F7D9EFF3108972B627487B
:102EEC0001680029FCD0BFF35F8F01252449BD4048
:102EFC008C460978204C0E002E438846F1B28A4647
:102F0C00614650460870391D1E48890065630A5198
:102F1C00B9000B50216A0020294219D0616A0800BF
:102F2C00A66A616A8142FAD18B4219D801D1B242A8
:102F3C0016D8C2451DD0104B1F201D625D630123A6
:102F4C000740BB40104A1E381360634642461A7055
:102F5C00BFF35F8F0022094B1A6089F31088B4E726
:102F6C000020BFF35F8F0022044B1A6089F3108896
:102F7C00ABE70120ECE7C04600400540280100D03B
:102F8C00D1A8002070A8002080E200E010B5EFF37B
:102F9C00108472B60A490B68002BFCD0BFF35F8F0C
:102FAC0001238340074A0848136202789A4302704F
:102FBC00BFF35F8F00230B6084F3108810BDC046F5
:102FCC00280100D000400540D1A8002070B50500B4
:102FDC000E001400002924D0002A24D080686B68CD
:102FEC009847296800280ED063001B197200033B18
:102FFC009219CB18033A9E7088188A5C002A14D157
:10300C00047030000EE073009B196200033B121930
:10301C00CB18033A9C7088188A5C002A00D05A702E
:10302C000670200070BD0800FCE75A700470300078
:10303C00F8E7C04630B583600023CCB2437301334C
:10304C00047342608373C4730D000068012C06D9AD
:10305C00421C0133DBB2137003329C42F9D1FF21C5
:10306C0029404B005918002340180338437030BDD9
:10307C00F8B5CE46474606000C0080B5002907D0AF
:10308C004D0003686D18033D5A195778002F04D171
:10309C0020000CBC90469946F8BD7900C91903393B
:1030AC008846434459788946002159705170736899
:1030BC003A002100806898473368002814D04246B3
:1030CC009A18947059195B5D002B00D053700F70D7
:1030DC00270049463000FFF7CBFF390002003000D3
:1030EC00FFF774FF0400D3E7424641465D19AF7009
:1030FC009A185B5C002B00D06B701470E9E7C0462B
:10310C00F0B557464546DE464E46E0B50D006B0021
:10311C0001685B19DF1E0400C85D83B00192CA19F7
:10312C0000284CD043001B18033BCB185E78B446E8
:10313C00002E16D1019E002E3ED0E67B002E04D030
:10314C0073009B19CB18033B5D70E57300282FD1DE
:10315C000023537003B03CBC90469946A246AB4644
:10316C00F0BD72006244033A89184A7890460022F6
:10317C004A7091465A70010032002000FFF726FF7A
:10318C0043468246002B07D05B0021684344033B37
:10319C00CB185A78002A16D1424651462000FFF728
:1031AC0015FF2168019BCA19002BC6D10028CFD06E
:1031BC0043001B18033BCB1800219970C8E7019BF7
:1031CC00002BBAD1C4E7500080180338091848788E
:1031DC00834648464870587041462000FFF7F6FE7B
:1031EC00594680462000FFF743FF4146020020006D
:1031FC00FFF7ECFE8046CFE7F0B54E464546DE467F
:10320C005746E0B5467B040075000068AD19033DD8
:10321C0083B00191415D421900294ED04B005B18DF
:10322C00033BC3185F78BC46002F18D1019D002DBD
:10323C0040D0E57B002D04D06B005B19C318033B19
:10324C005E70E673002931D1002330005370617336
:10325C0003B03CBC90469946A246AB46F0BD7A0002
:10326C006244033A80184278934600224270914699
:10327C005A7020003A00FFF7A9FE5B468046002BEF
:10328C0007D05B0021685B44033BCB185A78002ABB
:10329C0017D15A4641462000FFF798FE019B0100CA
:1032AC0020684219002BC4D10029CDD04B005B18EB
:1032BC00033BC31800209870C6E7019B002BB8D1C4
:1032CC00C2E75000801803380918487882464846EF
:1032DC004870587059462000FFF778FE53468346D5
:1032EC00002B07D05B0021685344033BCB185A7862
:1032FC00002A06D1594652462000FFF767FE834646
:10330C00C7E7500080180338091848464F784870B2
:10331C00587051462000FFF759FE390081462000B5
:10332C00FFF7A6FE494602002000FFF74FFE82463B
:10333C00E0E7C04670B5040000292CD0437B8B42DB
:10334C002ED0056848004018033828188278002AC7
:10335C0021D053009B18033BEA5CEE188A4202D141
:10336C001BE0002A08D053009B18033BEB185A783B
:10337C008A42F6D142785A7000230122837043703E
:10338C002000FFF7BDFE617B02002000FFF71EFE50
:10339C006073012000E0002070BD43783370EBE7D0
:1033AC0001221900FFF7ACFE60730120F4E7C04660
:1033BC0010B50400FEF79EFD01002000FFF764F835
:1033CC00FF232371BFF35F8F10BDC04610B50400FF
:1033DC00FEF790FD01002000FFF756F8FF23A380B5
:1033EC00BFF35F8F10BDC04610B504000120FEF77F
:1033FC008DFD034BC3189B002360BFF35F8F10BD83
:10340C0040000034F8B5040006200D0000F0ECFA82
:10341C00002845D02B4B2C49E3185A4253418022AB
:10342C00D20394465B421340284A63441360284AF3
:10343C00136018008A689043FBD1224B8021E3185B
:10344C005A425341234A5B0049000620995200F02E
:10345C00CBFA2900C00001F021FFC30921D140277C
:10346C000122260080256262A36200232C36AD0166
:10347C0035432B60062000F0B7FA3900800001F0CC
:10348C000DFF6023E26A53406E221A4080235B01D9
:10349C0033431A60104B236310232B600D3BA36442
:1034AC00F8BD0E4A934203D900230D4F0D4AD8E7BD
:1034BC007F221040013040089F011A003F18030082
:1034CC00CFE7C0460080FCBF00C0004000E00040D9
:1034DC0000F000402421012001030000FEFF000049
:1034EC00C0FF3F00FFFF00002C4B2D4A70B51A6047
:1034FC002C4A2D4B2D491A6010008B689843FBD138
:10350C002B4C2C4B9C4209D2013B1D1BAD080135A9
:10351C00AD002D1908CC9847AC42FBD100F006F950
:10352C00254A214B1A60214A9368DB018033FBD179
:10353C004022224B224C234D9A675A671A67DA664F
:10354C00AC4208D223682000002B21D00834FFF7AE
:10355C003DFFAC42F6D31C4C1C4DA168C022280088
:10356C0002F048FDA560FEF7B7FCFEF763FFFFF71E
:10357C00C1F9174C174B9C4209D2013B1D1BAD08DE
:10358C000135AD002D1908CC9847A542FBD170BD73
:10359C000834FFF70DFFAC42D4D3DCE700E0004069
:1035AC00BFCDFBFEFE7F3C0000F0004000C00040A1
:1035BC00849D0020949D0020FFFFFF0100F001403E
:1035CC00749D0020849D002000ED00E00000002090
:1035DC00949D00209C9D002000BEFDE70FB400B51B
:1035EC00084883B002F062FE049B002B07D005A9AB
:1035FC001800019101F0DCFD034802F057FE00BEFB
:10360C00FDE7C046509500206095002010B501489C
:10361C00FFF7E4FF64950020F0B54546DE465746BB
:10362C004E46E0B583B001920C9A050088469A424A
:10363C0000D974E01A0E93461E023000002359463E
:10364C000C9A01F06DFE374B6C009C466419A4007B
:10365C00644463680700834200D260602B1FDBB2B6
:10366C009946012B35D9C02380229B01234312019B
:10367C001A602D4BAD0059599A46002905D058694E
:10368C0001F00CFE01300138FDD1019A2368520182
:10369C005340E0221A4080235B0123431A604A46C0
:1036AC00012A2FD9802380229B01234312011A6007
:1036BC00300000233A005946676001F031FE534652
:1036CC005851012003B03CBC90469946A246AB46EB
:1036DC00F0BD4346012BC6D1C02303229B012343DB
:1036EC001A60023AA3681A42FCD0019A236852016C
:1036FC005A40E0231A4080235B0123431A600A4A94
:10370C00AD00924642462168514003220A401A609D
:10371C00012243469A40A3681A42FCD0C2E700201B
:10372C00D0E7C046008000407CA3002030B50C20C0
:10373C0083B000F0B3F9FEF7C7FB00280ED0944B12
:10374C00944A1A605A609A60DA601A615A619A61F6
:10375C00DA611A62904A5A6203B030BD8F4CA0678E
:10376C0000F0F0F901228E4B1A60636C012BFCD136
:10377C0003228C4B1A60894A936B012BFCD10133C9
:10378C000121894A89480093043300F033F9052359
:10379C00874A00930121874800F02CF9864B5A6820
:1037AC00FF2A02D8802252005A608022784C7D4B2E
:1037BC0021691201804D1A60002905D0606901F061
:1037CC006DFD01300138FDD1E0217B4B02201A68E0
:1037DC001140802252012A4311601968484003218C
:1037EC000140116004219A681142FCD08022802192
:1037FC0092012A4309011160802252005A606F4BDA
:10380C0023616F4B5968FF2900D85A6003226C481A
:10381C00634B01211A60020093681942FCD0E02529
:10382C0013681D4080235B0103431D6012684A40EE
:10383C000321114019600221614A93681942FCD09E
:10384C00802380219B0103430901196080215D4B7A
:10385C004900516063615C4B5A68FF2A00D859607B
:10386C0080225A4BE1691201574D1A60002905D08C
:10387C00606901F013FD01300138FDD1E02252499D
:10388C000B681A4080235B012B431A608023802233
:10389C009B012B4312011A6080223E4B52004A605E
:1038AC00E3614B4B5968FF2900D85A608022494B81
:1038BC00216A1201464D1A60002905D0606901F099
:1038CC00EDFC01300138FDD1E02241490B681A4072
:1038DC0080235B012B431A60802380229B012B43A6
:1038EC0012011A60802380225B004B60294BD202AC
:1038FC002362394B5968914200D25A608022374B6F
:10390C00616A1201344D1A60002905D0606901F01A
:10391C00C5FC01300138FDD1E0222F490B681A405B
:10392C0080235B012B431A60802380229B012B4355
:10393C0012011A608023DB024B60174B6362284B29
:10394C005A68FF2A02D8802252005A608022254BE6
:10395C00A1691201224D1A60002905D0606901F09D
:10396C009DFC01300138FDD1E0221D490B681A4045
:10397C0080235B012B431A60802380229B012B4305
:10398C0012011A6080235B004B600E4BA361E3E6CF
:10399C007CA30020006CDC021BB700000080004000
:1039AC003CB0004030B00040002F6859008002400D
:1039BC00008C864700C0024030800040001BB700DE
:1039CC003C800040405973075480004054B0004084
:1039DC006080004060B000406C8000406CB00040E3
:1039EC004880004048B00040014B8000C0587047F0
:1039FC007CA30020F8B504000C2017001D000E005D
:103A0C0001F04CFC4101091A8B01591AC900091823
:103A1C008901380001F042FC069A2B04120313436F
:103A2C002268002A21DB194AA21851424A418021FE
:103A3C0049018C4652420A40154962440A601549B4
:103A4C000A60154917008D68AF43FBD1C021221DB8
:103A5C008901114321222660A0600A602268002A95
:103A6C00FCDAE36008230B60F8BD3F2221680A40B2
:103A7C00B242D8D1A2681205120D8242D3D1EE21E6
:103A8C00E268C9020A409A42CDD1EDE70040FDBF81
:103A9C0000E0004000F0004000C000408023024ADB
:103AAC009B000343D36270470080054010B514009F
:103ABC0080221B4BD2051A6000281AD00123194A08
:103ACC001843194BDA61194A42401A6259629862DA
:103ADC008022134BD2051A601549164A1160E02258
:103AEC00D2041A60002C07D18022134B12061A60E4
:103AFC0010BD0D4BD861EBE780236201121B9200C5
:103B0C00121912015B049A4200D30C4A0C4B1A6036
:103B1C00054B5A608022084BD2051A60E8E7C04674
:103B2C0000B00540D3C007B0008005402D3FF84FD2
:103B3C00FCFF01000820014000A00540FFFFFF0032
:103B4C002CA80020AA23064A1B0113602F23054929
:103B5C00D360054B19605368002BFCDA7047C046E4
:103B6C000040024000B0FA00006002407047C046BE
:103B7C00F8B557464E46DE464546E0B51F000A9B53
:103B8C0005009B460D9B0E00914692469B0718D153
:103B9C000B9B0C9A934214D213000B9AB8469B1AA7
:103BAC004B444C460F0006001D00220043460134D6
:103BBC0039002020B047AC42F7D1AA4635003E0070
:103BCC0047460B9B002B38D09A441C00D0465346DA
:103BDC001A1B5B46013C185D31003B00A847002CCA
:103BEC00F5D10D9B9B0721D543464A469C1A0C9B4D
:103BFC00A3421BD93A009A464F469146E2194B46CE
:103C0C00310020200134A8475445F7D343460C9982
:103C1C00DB1B0133B9460022994203D343464A1EAB
:103C2C004A44D21A434690460133984440463CBC21
:103C3C0090469946A246AB46F8BDD046D1E7C04661
:103C4C00F0B54F464646D646C0B584B098460EAB46
:103C5C001B78129F994694460D9C109B119EBA0797
:103C6C0025D4002E69D19C4200D3C2E001223A40F7
:103C7C0092461F2C00D9BBE00C9A551E302201E055
:103C8C00202C03D001342A55A342F9D85246002ADD
:103C9C000DD0B4420BD21F2C62D80C9A551E302278
:103CAC0001E0202C5CD001342A55B442F9D1FA063B
:103CBC0035D57A055DD4002C57D10F9B102B00D134
:103CCC007CE00F9B022B00D18DE030230C9A012459
:103CDC0013704B46002B27D02D230C9A135501340F
:103CEC000C9B624600930397434602960194FFF7A0
:103CFC003FFF04B01CBC90469946A246F0BDBB06E3
:103D0C0063D4202CECD00C9B1A190134782313703B
:103D1C00202CE5D030220C9B1B191A700134202C5E
:103D2C00DED04B46002BD7D17B0735D43B07D7D5FC
:103D3C0020230C9A13550134D2E7012215003D4083
:103D4C00AA463A4220D04A46002A2AD10C323A429C
:103D5C0027D19C429DD21F2C00D88DE7202E19D93B
:103D6C002024FA06BCD57A0503D4A3421BD0A64264
:103D7C0019D00F9B102BC2D0022BC9D1202CAFD045
:103D8C000C9B1B19013440E09C4200D38FE71F2C85
:103D9C0000D871E720248AE72B230C9A13550134A1
:103DAC009EE7013ED5E7631E012C00D185E70F9AF3
:103DBC00102A20D0022A25D01C00ABE7BB060DD45C
:103DCC0078230C9A01241370A4E7202C00D187E7E8
:103DDC0058220C9B1B191A70013499E758230C9A22
:103DEC000124137096E70C9A60330124137091E749
:103DFC00202400265BE7023CBA06E9D40C9A12197F
:103E0C001C0083E70C9A9246534462221A707FE797
:103E1C0010B5002800D110BD02F0F6F9FBE7C04642
:103E2C000B0010B5002802D049681B68984710BDDC
:103E3C00F0B5DE46574645464E46E0B59BB09B4630
:103E4C00249B0A909846259B0B910C924046424627
:103E5C0019009A4601F0F3FC002800D0E8E001229A
:103E6C00404651467F4B524201F0E4FC002800D002
:103E7C00DEE00122404651467B4B524201F0C4FC2D
:103E8C00002800D0D4E0002200234046514601F027
:103E9C00BBFC002800D0CAE15346C14609938023DD
:103EAC00289ADB001A400E92289A1A4201D1062356
:103EBC0026934C46099B234300D0D9E0289B00262F
:103ECC0000271B0500D4AEE100230D93269B19009F
:103EDC000D9B994200DCB0E1C81A431E2693802347
:103EEC00289ADB001A430023002528920D93279B68
:103EFC000024AB4200D95C1B0223289A1A400E9274
:103F0C00289A134203D06B426B415B421C400D9BC1
:103F1C00002B07D04846099932003B0001F013FCF6
:103F2C0081460991002200234046514601F06CFC69
:103F3C00002805D080200006844609996144099127
:103F4C00289A4A4B0A9E13404A460493269B0B9987
:103F5C000293099B03940092019330005B460C9AE8
:103F6C00884600F0A1F90400002D72D0289B220095
:103F7C0098061F23C017984341465B466530B047EF
:103F8C000D9B671CDA179C18DB0F98466B1E994625
:103F9C000025544001E0202D13D00AAA94461F237B
:103FAC00200063440A2101355E1901F077F93031A4
:103FBC00317020000A2101F071F926000400092E4D
:103FCC00E9D8052306934B460593002304930A3343
:103FDC00039343463A000A9E0B9F029312AB009345
:103FEC0039005B4630000195FFF72AFE0E9B04005A
:103FFC00002B2ED00C9B279AC51AAA4229D93C001B
:10400C00814698461700434621005A1920205B46EA
:10401C000135B047AF42F6D84C460C992798631A35
:10402C0001330022984200D30AE10134141910E044
:10403C00289B42460493279B0B990393269B0A9833
:10404C0002935346009201935B460C9A00F02CF9B4
:10405C00040020001BB03CBC90469946A246AB46DF
:10406C00F0BDC046FFFFEF7FFFFFEFFFFFF7FFFF45
:10407C00764B099D9C466800400D604401F0F2FBB4
:10408C00734A744B01F07DFB734A744B01F052FB85
:10409C002B03734A1B0B1A4306000F00714B1100C4
:1040AC0048460022099501F03CFB6F4A6F4B01F02A
:1040BC0068FB02000B003000390001F03BFB01F003
:1040CC00E9FB0D9001F0CEFB694A6A4B04000D0030
:1040DC0001F057FB0022684B01F02CFB01F0DAFBDE
:1040EC00664A0600664B2000290001F04AFB0400DA
:1040FC0030000D000F9601F0B5FB624A624B01F0E7
:10410C0040FB02000B002000290001F00AFB02001A
:10411C000B0006000F0001F034FB320004000D0010
:10412C003B003000390001F005FB0022109011918A
:10413C00564B2000290001F006FB0022544B01F0E5
:10414C00F9FA02000B002000290001F0FCFA002211
:10415C00504B01F0EFFA02000B002000290001F097
:10416C00F2FA0D00802132003B000400C90500204A
:10417C0001F0D7FA02000B002000290001F0DAFA56
:10418C0002000B001098119901F0DDFA0022344B5B
:10419C0001F0D0FA404A0F9B9446634400221B0561
:1041AC0001F0EFFA06000F0002000B0048460999D7
:1041BC0001F02AFB00280AD00D9B3000013B39008E
:1041CC000D930022324B01F0BEFA06000F00C625FB
:1041DC000D99330063318D42AD4128996D42043500
:1041EC00090500D483E63B4300D16FE6099C4846A1
:1041FC0021002A4A2A4B01F015FB002808D0002286
:10420C0048462100274B01F0FFFA002800D05DE65C
:10421C00269B002B00D16AE60E9B5A1E9341269AD0
:10422C00D31A269363E6002304250D935FE68023BF
:10423C001B065344C146099331E6002326934EE6F0
:10424C000A008446013A6244121BEEE601FCFFFFB1
:10425C00FB799F501344D33FB3C8608B288AC63F69
:10426C000000F03F0000F83F61436F63A787D23F27
:10427C0071A379094F930A400000E03F1655B5BB76
:10428C00B16B0240EF39FAFE422EE63F00002C40A3
:10429C000000244000001840FF0300002D431CEBDD
:1042AC00E2361A3F80842E41F0B54E46DE46574624
:1042BC004546E0B597B09946209E219F229B8346A8
:1042CC00984607910C923B0032003000390001F007
:1042DC00B6FA002800D0C1E1012230003900CA4BE7
:1042EC00524201F091FA002800D0E0E001223000A7
:1042FC003900C64B524201F09DFA002800D0B6E0BE
:10430C00002230003900C24B01F094FA002800D092
:10431C0098E0002230003900BE4B01F075FA0028FD
:10432C0000D08FE0002200233000390001F06CFA3D
:10433C00002800D0B0E000230D93249B5B0501D432
:10434C000623984608AB9C4617220024302341468E
:10435C00624404E0013413550139202C01D00929A1
:10436C00F8D888463000390001F094FA4346DA0058
:10437C00A94B05009B181A685B680892099301F019
:10438C0071FA02000B003000390001F0CAF9089AEA
:10439C00099B01F0F6F90A900B9101F09FFA824605
:1043AC0001F05CFA02000B000A980B9901F0B9F9C4
:1043BC0000229A4B0A900B9101F03CFA002800D194
:1043CC00C0E001239C46E244504601F047FA02004B
:1043DC000B000898099901F01DFA002802D000235F
:1043EC009A4601354346002B69D008AB17269C46EC
:1043FC0008956644554614E001235B4243440A2168
:10440C0028009A4600F04AFF0134303137193970D0
:10441C0028000A2100F042FF092D00D8D5E0D04633
:10442C000500202CE8D10323249A1340012B00D142
:10443C0000E10EAB9846249B01940393239B0293BB
:10444C0043461EE0249B58460493239B00960197F9
:10445C00039343460C9A029307994B46FFF7E8FCEB
:10446C0017B03CBC90469946A246AB46F0BD249B87
:10447C005B070ED403226A4B249901920391239972
:10448C000291009358464B460C9A0799FFF770FB24
:10449C00E6E70422634BEFE73B00320000200021EB
:1044AC0001F03FF9012306000F000D9345E7249B13
:1044BC000393239B0293042301935B4BE1E72800B6
:1044CC0001F0D0F902000B003000390001F029F99D
:1044DC00524B002206000F0001F096F90EAB9846E5
:1044EC0000280AD10022300039004C4B01F0A2F90F
:1044FC00002802D1EB0700D50135202C32D008AAB8
:10450C0094461723280063440A2101341E1900F035
:10451C009DFE3031280031700A2100F097FE051EF7
:10452C00EBD10323249A1340012B00D191E01F2CD3
:10453C0000D980E70D9B002B3BD02D234246135511
:10454C00013478E700220A980B99344B01F05CF99E
:10455C00002800D046E75346002B67D101239C4628
:10456C00E2443FE70323249A1340012B00D062E777
:10457C00239B002B00D15EE70D9B002B03D1249ACB
:10458C000C33134202D0239B013B2393239B9C426D
:10459C00CDD208AB9C461722302362441F2C06D880
:1045AC002399013413558C42C1D0202CF8D12024EE
:1045BC0041E7249B5B0721D4249B1B0700D43AE7DB
:1045CC00202342461355013435E75746089D202CCD
:1045DC0037D0220030214046002F08D00132B15490
:1045EC00202A43D0D3431B191B18002BF6D10EAB3A
:1045FC0098462E234146541C8B547EE72B2342466F
:10460C001355013417E7C046FFFFEFFFFFFFEF7FA5
:10461C0065CDCD4165CDCDC1689700200000E03F50
:10462C00709500207495002080950020DB0700D445
:10463C00D8E693E7239B002B00D1FAE60EAB984605
:10464C009AE70323249A1340012B00D0F1E60EAB1A
:10465C009846239B002B00D169E78DE7249B03939D
:10466C00239B029303230193064B0AE70323249A0B
:10467C0020241340012B00D0DBE6239B2024002BAD
:10468C00DCD1D6E67C950020F0B5DE464E4657468A
:10469C004546E0B59FB01C00289B93460993CF4A32
:1046AC00CF4B894608901A60002900D116E20023EE
:1046BC0020789A46002800D118E226001D004C46AE
:1046CC000AE02A006F1C5B46089D2100A8473D00AC
:1046DC000136307800287AD02528F2D110239A465A
:1046EC00083B9946043B9846023B00219C46721CB1
:1046FC00107816000300203BDBB2102B03D8B94F07
:10470C009B00FB589F460300303B092B3CD90023F0
:10471C000A932A2800D171E0002398462E2847D00E
:10472C000300683BDBB2122B1FD8AF4A9B00D35857
:10473C009F46012301321943DAE7634601321943DC
:10474C00D6E7434601321943D2E7534601321943A7
:10475C00CEE74B4601321943CAE770786C2800D17A
:10476C00BFE280235B00194301360300253BDBB21B
:10477C00532BA6D89D4A9B00D3589F4680235B00A1
:10478C00707819430136F0E700270300B800C01910
:10479C0001364000C018337830381A00303A070020
:1047AC00092AF3D90A901800002398462E28B7D16D
:1047BC0080237078DB0019430300303B721C092BFB
:1047CC0000D895E12A2800D1A6E11600A8E7A14659
:1047DC00AA462C00D34503D801235B425B449A467E
:1047EC005B46524649460020089DA84720001FB052
:1047FC003CBC90469946A246AB46F0BD099B40CBCB
:10480C000A96002E03DB50780993561C84E728384F
:10481C00014370420A9009935078561C7CE7782823
:10482C0000D1D4E1582800D168E26F2800D152E3BE
:10483C00622800D1D8E110230A009A430B92692810
:10484C0001D000F0A2FC0A230C934B0500D4D5E157
:10485C0001230B9A9A430B92692800D1CEE164286C
:10486C0000D1CBE10B9A802311009B0019408A46A2
:10487C001A4200D032E3802311005B0019408946B4
:10488C001A4201D000F002FC13005B0600D510E3C5
:10489C000B9B1B0601D400F06EFC099B04CB12048D
:1048AC00120C924609935346002B00D064E30B9AEA
:1048BC001033110099430B91520500D45CE3002393
:1048CC0099460B9B06930A9B0593434604930C9BBA
:1048DC0003930023DEE27078682800D107E280237E
:1048EC000136194341E780239B0070781943013648
:1048FC003BE7462800D174E10722099B049107335A
:10490C0093430A9A19000392424602920CC90898E2
:10491C000092019309912A005B462100FFF7C4FC29
:10492C0001360500D5E6099B1A0008CA9146002BF2
:10493C0000D105E1212211438A460EA884461F218D
:10494C006144099500220F27A4460D0002E0202A9D
:10495C000CD00B003C001C4020003730092C00D838
:10496C0007380132A85419090F2BF0D86446099D59
:10497C00F0E08B0700D4D1E1099B2A0099466B1C0F
:10498C0098464B4601CB21009946089F5B46C0B226
:10499C00B8470A9B9C466544012B00D890E2B2466E
:1049AC005E464746A846089D3A0033000137210071
:1049BC002020A8474745F7D1B3464B4656463D0005
:1049CC000993013685E62A006F1C5B46089D210081
:1049DC002520A84701363D007BE6C046494400200F
:1049EC0028A8002088950020CC950020189600203F
:1049FC00099B04CB994643460992002B00D097E0C3
:104A0C0013789C46002B00D1B3E302235B425A1C63
:104A1C00099B924618000A9F0B92504402E0834275
:104A2C0000D169E15A780133002AF8D1099A0A9722
:104A3C009B1A0B9380230A00DB001A400C9219423C
:104A4C0004D00B9B434501D943460B9302231A0018
:104A5C000A400D920B4200D184E16046002823D01D
:104A6C000C9B002B00D124E1A844C246099B57465D
:104A7C005B1B9846089BB2462A0026005C469B4668
:104A8C0009E023003100551CD8474346585D0028E7
:104A9C0000D13FE12A009742F3D1A3463D003400F8
:104AAC0056460D9B002B69D00B9B0A99A846994240
:104ABC0064D98C466544ED1A089B47469A46B04625
:104ACC0026005C463A002300013731002020D047F5
:104ADC00AF42F7D1A346340046464FE0D24B207884
:104AEC00089300239A46002800D0E6E5002471E6DE
:104AFC00434606000A9F9800C018013240008019F6
:104B0C001678030030003038303B0928F3D93000D8
:104B1C00984616000A9703E6099B023604CB90468A
:104B2C00D2434046D2171040804609933078F7E5BF
:104B3C0013789C46002B00D11AE34346013B66E7F1
:104B4C00102208009043113210438246002249057E
:104B5C0000D4F2E653460693082305934346049388
:104B6C00102303930023029316AB019200932A00A7
:104B7C005B4621000898FFF763F805004B460136A9
:104B8C000993A6E5202302009A43472A04D18023E7
:104B9C001B01194302239843452801D120231943B3
:104BAC000722099B0491073393430A9A1900039235
:104BBC00424602920CC908980092019309912A006E
:104BCC005B462100FFF734F90136050081E510231F
:104BDC000C930C230A009A430B924B0500D43BE632
:104BEC0036E62023194387E602230C930B910B998D
:104BFC006428EED10B9B5B0500D529E60B9A80232C
:104C0C0011009B0019408A461A4200D0CEE0802346
:104C1C0011005B00194089461A4200D0DBE11300F9
:104C2C005B0600D51DE10B9B09991B0600D499E28C
:104C3C0008C91BB2D8171A18424092B20991924671
:104C4C00DA0F1292002B09D1802310220B99DB0072
:104C5C000B4091430B91002B00D012E10B9A612376
:104C6C00920600D541230EA91F228C46DBB262446A
:104C7C000A3B57461395A2464D460C9CB1460D93E4
:104C8C0016000AE03033DBB201357355A74200D26F
:104C9C001CE1202D00D119E107002100380000F0A3
:104CAC00FDFACBB20929EDD90D9A94466344DBB2D7
:104CBC00EAE7099B5F465B1B98460A9BB3469A46FC
:104CCC002600089C2A003B003100A04743460135D2
:104CDC00585D0028F6D1534634000A935E46BB4615
:104CEC00DFE6C0239B00B078194302363DE5C023B4
:104CFC00B0781943023638E50A979BE60C230A0074
:104D0C009A4314331A4310230B920C934B0500D483
:104D1C00A8E59DE5A34634005646C2E60A9A012A48
:104D2C0000D82EE26B1E9F18089BB04699462600B1
:104D3C005C462A002300013531002020C847BD42C3
:104D4C00F7D1A34634004646099B3A0001CB21001B
:104D5C0098467D1C5B46089FC0B2B8474346013657
:104D6C000993B6E40B9A0A98531C904200D80AE2B5
:104D7C0043199B1A1F00089BB24626005C469B46B3
:104D8C002A002300013531002020D847BD42F7D13D
:104D9C000A9BA34601330B93099B34001B785646A0
:104DAC009C466046002800D05AE6E7E60722099B9D
:104DBC0007339343013294469C4462465F680992E0
:104DCC001A68FB1710931193109811990300534014
:104DDC000E930B007B400F9394460E9A0F9B121A66
:104DEC008B410E920F93FB0F6246129300233A43B2
:104DFC009A463DD00B9A6123920600D5412300229E
:104E0C00DBB20EA90A3B8C4691460D9343461F32EA
:104E1C006244139515964D460E9E0F9FA1469046E3
:104E2C000C9C14930FE0C0462D3900203032D2B2C6
:104E3C00434601355A55BA4500D17CE1202D00D1AD
:104E4C007CE106000F00220000233000390000F046
:104E5C0067FAD2B2092AE9D90D9B9C466244D2B2B8
:104E6C00E6E7FF23099904C913401A000991E6E605
:104E7C000B9A1033110099430B915205BAD50023AC
:104E8C0099460B9B06930A9B0593434604930C9BF4
:104E9C000393129B02934B46019316AB2A0000938B
:104EAC0021005B460898FEF7CBFE01360500FFF7A4
:104EBC0010FCFF22099B02CB11408A460993F2E4B5
:104ECC004B46454609930136FFF703FC4E465446C4
:104EDC00A946139DD5E708230C9387E60722099B67
:104EEC0007339343013294469C44624609921A68F4
:104EFC005B6810009A4613005246134307D10B9A75
:104F0C001033110099430B91520500D5D7E40B9A3D
:104F1C006123920600D541230022DBB20EA90A3B85
:104F2C008C4691460D9343461F3262445746129568
:104F3C00A2464D460400B14690460C9E13930DE0DC
:104F4C003032D2B2434601355A550023BB4200D110
:104F5C00FDE0202D00D1FDE004000F003200002305
:104F6C002000390000F0DCF9D2B2092AE8D90D9BF7
:104F7C009C466244D2B2E5E70B9A6123920600D5B7
:104F8C004123DBB20EA90A3B1F228C460D93230052
:104F9C0062445446129517004D469A46B1460C9EF3
:104FAC0008E03033DBB201357B55B4420ED3202DF3
:104FBC000CD004003100200000F070F9CBB20929AC
:104FCC00EFD90D9A94466344DBB2ECE74E46544657
:104FDC00A946129D75E4099B1A0008CAD9171392A9
:104FEC005A184A409146DA0F1292002B08D18023AE
:104FFC0010220B99DB000B4091430B91002B2BD112
:10500C000B9A6123920600D541230EAA1F279446C2
:10501C00DBB20A3B0D95674455460993A2464C46B4
:10502C00B1460C9E08E03033DBB201357B55B442FF
:10503C000ED3202D0CD004003100200000F02EF9EE
:10504C00CBB20929EFD9099A94466344DBB2ECE759
:10505C004E465446AA460D9D0B9B2A0006930A9B6E
:10506C0021000593434604930C9B08980393129BD1
:10507C00013602935346019316AB00935B46FEF741
:10508C00DFFD139B05000993FFF723FB099B04CB62
:10509C0091461293002A08D1802310220B99DB0031
:1050AC000B4091430B91002B2BD10B9A6123920651
:1050BC0000D541230EAA1F279446DBB20A3B0D955F
:1050CC00674455460993A2464C46B1460C9E08E0EF
:1050DC003033DBB201357B55B4420ED3202D0CD0CE
:1050EC0004003100200000F0D9F8CBB20929EFD927
:1050FC00099A94466344DBB2ECE74E465446AA4602
:10510C000D9D0B9B2A0006930A9B21000593434699
:10511C0004930C9B0898039300230293534601932A
:10512C0016AB00935B46FEF78BFD129B05000993B3
:10513C000136FFF7CEFAB44200D87FE6149B4C46FA
:10514C000E960F97A9469846159E139D99E6A64272
:10515C0000D8FEE6139B4E469846A9465446129D2F
:10516C00FFF7AFFB08C9D8171A184240099166E53A
:10517C0000230B935EE4099B04CB92460993FFF743
:10518C0092FB2F00E0E50B930BE6063B0C932EE510
:10519C0000B585B0039101210290009303481300E0
:1051AC004A4202A9FFF770FA05B000BDE13B0020AE
:1051BC0010B5094A0300146884B0002C08D00122F1
:1051CC0000910648524203A9A047012004B010BD2B
:1051DC0001F06CF80020F9E728A80020D13B002052
:1051EC0001480421014B1847009D0020D14F00209D
:1051FC00142310B50100188804331B88984710BD80
:10520C00162310B50100188802331B88984710BD6F
:10521C00F0B5C64600B5002916D0142304000125AC
:10522C0098461827890046184346216818883B88F9
:10523C00984701C4431E984140420540A642F3D111
:10524C00280004BC9046F0BD0125F9E7124A936F83
:10525C009B0815D29066D166002905D0FFE7FFE7C1
:10526C00FFE7516F106F704704B580210906C21714
:10527C005140002800D0C84303F000FF002104BDBA
:10528C00F0B5146E556E576F166FFFF7E3FF14668B
:10529C00556657671667F0BD000000D0114A936F32
:1052AC009B0813D210665166002905D0FFE7FFE773
:1052BC00FFE7516F106F704704B5002801D0002034
:1052CC00C04303F0DBFE002104BDC046F0B5146EF4
:1052DC00556E576F166FFFF7E5FF146655665767E7
:1052EC001667F0BD000000D094464E4A926F9208AB
:1052FC00624601D230E0C046F0B54A4EB56F6D083B
:10530C00FCD3346E756E776F366F00F025F89446CB
:10531C00444A14665566576716676246F0BDC04628
:10532C009446404A926F9208624601D258E0C046B9
:10533C00F0B53C4EB56F6D08FCD3346E756E776F5F
:10534C00366F00F04DF89446364A1466556657672A
:10535C0016676246F0BDC046002B24DB11D0002935
:10536C003EDA00B5C943404200D1013100F038F8B3
:10537C00C943404200D10131DB43524200D10133D9
:10538C0000BD002AEBD1002801D1002905D0002056
:10539C00C90FC90701D1C043410800B503F06EFE27
:1053AC000022002300BD00B500290ADBDB4352427A
:1053BC0000D1013300F014F8C943404200D101314F
:1053CC0000BDC943404200D10131DB43524200D100
:1053DC00013300F005F8DB43524200D1013300BD2C
:1053EC00002923D1002B18D1002A0CD0BC460D4F1C
:1053FC0038667A6600210023FFE7FFE7FFE77A6F44
:10540C00386F67467047002801D00748010000B587
:10541C0003F034FE0022002300BD02000B0000202C
:10542C0000217047000000D0FFFFFFFF002B00D0D1
:10543C00BFE0130C28D1002AE7D080B4114F396695
:10544C007A66FFE7FFE730B4040C7B6F396F1B04FF
:10545C0023433B667A66FFE7FFE7FFE7C04684B26B
:10546C007B6F3D6F1B0423433B667A66FFE7FFE7C8
:10547C00C04600232C042D0C7A6F386F001969413B
:10548C00B0BC7047000000D0F0B594460025140E57
:10549C0001D112020835140F01D112010435940FF9
:1054AC0001D192000235D40F01D152000135D40B39
:1054BC000134254F7C66254C3C660E0C93B2FFE7FD
:1054CC00FFE7FFE73C6F6643360C7703BE4673433A
:1054DC00DF0B5B04C01AB941130C7343DB18C91AF8
:1054EC00CE086643360CB64493B273431F0F1B01B0
:1054FC00C01AB941130C73431F0B1B05C01AB941D9
:10550C00860D8F023E436643360C092D24DB520A6E
:10551C007243801A7703460A6643360C16235B1BCC
:10552C00DE40DF40BF1964466643821B704604357B
:10553C0006330100D940A840C01900D30131A24262
:10554C0006D20023F0BD0000000000D0FFFFFFFFDB
:10555C00121B0130F3D3F1E709277F1BFE40644691
:10556C00A2B27243801A00D20139220C7243130C7E
:10557C001204821A99410B0070460435133701004E
:10558C00F940A840801900D30131002B02D1A2426E
:10559C000AD2F0BD013000D30131121BFAD2013B0B
:1055AC00F8D1A24200D2F0BD013000D30131121B60
:1055BC00F7E7F0B51C0C00D080E00CB400251C0AF9
:1055CC0004D11B02160E3343120208351C0B04D1F6
:1055DC001B01160F3343120104359C0B04D19B00A5
:1055EC00960F334392000235DC0B02D192185B41CB
:1055FC0001351C00971864410134464F7C66464CBB
:10560C003C660E0CFFE7FFE7FFE7C0463C6F6643C6
:10561C00360C7703BE4697B27743C01B00D20139D4
:10562C00C01B00D201399FB27743C91BC91B170C91
:10563C0077437E04FF0B801BB941CE086643360CC2
:10564C000C2D33DBB644120B1F053A431B0B97B2E0
:10565C007743C01B00D201399FB27743C91B170C8B
:10566C0077433E043F0C801BB941860D8F023E43AD
:10567C00664329277F1BFE400C3D7746AF40BF1980
:10568C0030BCA2B2ABB272437343801A9941220C64
:10569C007243130C1204801A994102000B0001375B
:1056AC00001BA941F9D2781E0021F0BD0C277F1BED
:1056BC00FE4077467F0BAF40FF19E0E700245D1CEE
:1056CC0007D0144F7D663966FFE7FFE7FFE7FFE77A
:1056DC003C6F95B29EB265436643401BB141150CBD
:1056EC001E0C6543664336042F0C3E432D04401BB1
:1056FC00B141994204D202000B0020000021F0BD00
:10570C0001D19042F7D3801A994101349942F2D3D6
:10571C00F6E70000000000D0FFFFFFFF48404140CB
:10572C00484018B41B4B5B68FC46019308BD04DF72
:10573C00A757002018B4174B1B68FC46019308BDF3
:10574C0000DFB15700209446134A926F920809D299
:10575C00624618B40F4BDB68FC46019308BD0CDFA6
:10576C00695A00200C4AF0B5146E556E576F166FBF
:10577C006246FFF7EEFF084A1466556657671667D0
:10578C00F0BD18B4034B9B68FC46019308BD08DFC1
:10579C000D59002028210120000000D0FFB55040F9
:1057AC004240504059404B40594000E0FFB5154F26
:1057BC004C00640D03D0BC4204D10C0314D800205F
:1057CC00090D09055C00640D03D0BC4204D11C0317
:1057DC000AD800221B0D1B0501264B4009D44B4057
:1057EC0003D58B4200D18242FFBD9942FCD190423D
:1057FC00FFBD0B43DB1803431343F5D0C9434918D2
:10580C00FFBD0000FF07000000B5FFF7CFFF804190
:10581C0000BDC04600B5FFF7C9FF01D9002000BD8F
:10582C00012000BD00B5FFF7B9FF01D9002000BD74
:10583C00012000BD00B5FFF7B1FF804100BD012084
:10584C0040054A00121804D85A00121801D800203A
:10585C00704701207047002070470000002100288D
:10586C0005D17047C1174840401AFAD0C90713B583
:10587C00064B1B6898470CBC441CA2401005120B2D
:10588C000349091B09051943114310BD5CA80020ED
:10589C001F04000010B54C00620D8023D218DB00F1
:1058AC00D21A5B057E2A10DD9E3A13DACC17090357
:1058BC00490819435242D140640001341532202A60
:1058CC0005DAD0400843604310BD002010BD0846E7
:1058DC00604310BDC80FC018013810BD18B4044B7C
:1058EC005B6AFC46019308BD24DF195C00200000B4
:1058FC0028210120132370B51D78012D15D010DD42
:10590C002748FFF77DFC274C01008022200000F087
:10591C0071FB022D06D02448FFF76AFC234B18605C
:10592C0070BD204C224AA264F5E72E001D4C204A83
:10593C00A3085B421E401D422FD033002260202062
:10594C00B1006118801B0A604A608A60CA600A61F3
:10595C004A618A61CA610A624A628A62CA620A63DD
:10596C004A638A63CA630A644A648A64CA640A65BD
:10597C004A658A65CA650A664A668A66CA660A679D
:10598C004A674008102803D18A67CA67A264C2E735
:10599C001E339B00E250A264BDE70023CFE7C04654
:1059AC0053440000282101204C3300005CA8002047
:1059BC007557002007B5604601880A0A0230DF2AB5
:1059CC00FAD1C9B2820804D302884088000410437B
:1059DC0000E00068014A5050039007BD28210120C7
:1059EC000FB403BC0CBCF0B50124E407634000E029
:1059FC00F0B50C0DCF0F661E3605891B640503D35D
:105A0C00C943404200D30131640D03D0661CF60A31
:105A1C0007D0E41B00207F00791C89078912803C89
:105A2C0024031D0DDF0F6E1E36059B1B6D0503D366
:105A3C00DB43524200D301336D0D03D06E1CF60ACA
:105A4C0007D0ED1B00227F007B1C9B079B12803D27
:105A5C002D032F1B661B58D4A446202E46DA203764
:105A6C001400BC401D00BD40F24033412A43801855
:105A7C005941CB0F05D0C943C04300226442504169
:105A8C00514162464D0D28D10D0D07D100281FD074
:105A9C00241940414941013A0D0DF9D0640006D357
:105AAC00013000D30131002C01D140084000013AF3
:105ABC000BD4941CE40A04D112051144DB071944DD
:105ACC00F0BDD907204B194300E0D9070020F0BDE9
